{
  "contractName": "GADS",
  "abi": [
    {
      "inputs": [],
      "stateMutability": "nonpayable",
      "type": "constructor"
    },
    {
      "anonymous": false,
      "inputs": [
        {
          "indexed": true,
          "internalType": "address",
          "name": "owner",
          "type": "address"
        },
        {
          "indexed": true,
          "internalType": "address",
          "name": "approved",
          "type": "address"
        },
        {
          "indexed": true,
          "internalType": "uint256",
          "name": "tokenId",
          "type": "uint256"
        }
      ],
      "name": "Approval",
      "type": "event"
    },
    {
      "anonymous": false,
      "inputs": [
        {
          "indexed": true,
          "internalType": "address",
          "name": "owner",
          "type": "address"
        },
        {
          "indexed": true,
          "internalType": "address",
          "name": "operator",
          "type": "address"
        },
        {
          "indexed": false,
          "internalType": "bool",
          "name": "approved",
          "type": "bool"
        }
      ],
      "name": "ApprovalForAll",
      "type": "event"
    },
    {
      "anonymous": false,
      "inputs": [
        {
          "indexed": false,
          "internalType": "string",
          "name": "newBaseURI",
          "type": "string"
        }
      ],
      "name": "BaseURIChanged",
      "type": "event"
    },
    {
      "anonymous": false,
      "inputs": [
        {
          "indexed": true,
          "internalType": "address[]",
          "name": "recipients",
          "type": "address[]"
        },
        {
          "indexed": false,
          "internalType": "uint256[]",
          "name": "tokenIds",
          "type": "uint256[]"
        }
      ],
      "name": "BatchMinted",
      "type": "event"
    },
    {
      "anonymous": false,
      "inputs": [
        {
          "indexed": true,
          "internalType": "address",
          "name": "previousOwner",
          "type": "address"
        },
        {
          "indexed": true,
          "internalType": "address",
          "name": "newOwner",
          "type": "address"
        }
      ],
      "name": "OwnershipTransferred",
      "type": "event"
    },
    {
      "anonymous": false,
      "inputs": [
        {
          "indexed": true,
          "internalType": "uint256",
          "name": "tokenId",
          "type": "uint256"
        },
        {
          "indexed": true,
          "internalType": "address",
          "name": "owner",
          "type": "address"
        }
      ],
      "name": "TokenBurned",
      "type": "event"
    },
    {
      "anonymous": false,
      "inputs": [
        {
          "indexed": true,
          "internalType": "address",
          "name": "from",
          "type": "address"
        },
        {
          "indexed": true,
          "internalType": "address",
          "name": "to",
          "type": "address"
        },
        {
          "indexed": true,
          "internalType": "uint256",
          "name": "tokenId",
          "type": "uint256"
        }
      ],
      "name": "Transfer",
      "type": "event"
    },
    {
      "anonymous": false,
      "inputs": [
        {
          "indexed": false,
          "internalType": "bool",
          "name": "newStatus",
          "type": "bool"
        }
      ],
      "name": "TransferableChanged",
      "type": "event"
    },
    {
      "inputs": [
        {
          "internalType": "address",
          "name": "to",
          "type": "address"
        },
        {
          "internalType": "uint256",
          "name": "tokenId",
          "type": "uint256"
        }
      ],
      "name": "approve",
      "outputs": [],
      "stateMutability": "nonpayable",
      "type": "function"
    },
    {
      "inputs": [
        {
          "internalType": "address",
          "name": "ownerAddress",
          "type": "address"
        }
      ],
      "name": "balanceOf",
      "outputs": [
        {
          "internalType": "uint256",
          "name": "",
          "type": "uint256"
        }
      ],
      "stateMutability": "view",
      "type": "function"
    },
    {
      "inputs": [
        {
          "internalType": "uint256",
          "name": "tokenId",
          "type": "uint256"
        }
      ],
      "name": "burn",
      "outputs": [],
      "stateMutability": "nonpayable",
      "type": "function"
    },
    {
      "inputs": [
        {
          "internalType": "uint256[]",
          "name": "tokenIds",
          "type": "uint256[]"
        }
      ],
      "name": "burnBatch",
      "outputs": [],
      "stateMutability": "nonpayable",
      "type": "function"
    },
    {
      "inputs": [
        {
          "internalType": "uint256",
          "name": "tokenId",
          "type": "uint256"
        }
      ],
      "name": "getApproved",
      "outputs": [
        {
          "internalType": "address",
          "name": "",
          "type": "address"
        }
      ],
      "stateMutability": "view",
      "type": "function"
    },
    {
      "inputs": [
        {
          "internalType": "address",
          "name": "ownerAddress",
          "type": "address"
        },
        {
          "internalType": "address",
          "name": "operator",
          "type": "address"
        }
      ],
      "name": "isApprovedForAll",
      "outputs": [
        {
          "internalType": "bool",
          "name": "",
          "type": "bool"
        }
      ],
      "stateMutability": "view",
      "type": "function"
    },
    {
      "inputs": [
        {
          "internalType": "address",
          "name": "to",
          "type": "address"
        }
      ],
      "name": "mint",
      "outputs": [
        {
          "internalType": "uint256",
          "name": "",
          "type": "uint256"
        }
      ],
      "stateMutability": "nonpayable",
      "type": "function"
    },
    {
      "inputs": [
        {
          "internalType": "address[]",
          "name": "recipients",
          "type": "address[]"
        }
      ],
      "name": "mintBatch",
      "outputs": [
        {
          "internalType": "uint256[]",
          "name": "tokenIds",
          "type": "uint256[]"
        }
      ],
      "stateMutability": "nonpayable",
      "type": "function"
    },
    {
      "inputs": [],
      "name": "name",
      "outputs": [
        {
          "internalType": "string",
          "name": "",
          "type": "string"
        }
      ],
      "stateMutability": "view",
      "type": "function"
    },
    {
      "inputs": [],
      "name": "owner",
      "outputs": [
        {
          "internalType": "address",
          "name": "",
          "type": "address"
        }
      ],
      "stateMutability": "view",
      "type": "function"
    },
    {
      "inputs": [
        {
          "internalType": "uint256",
          "name": "tokenId",
          "type": "uint256"
        }
      ],
      "name": "ownerOf",
      "outputs": [
        {
          "internalType": "address",
          "name": "",
          "type": "address"
        }
      ],
      "stateMutability": "view",
      "type": "function"
    },
    {
      "inputs": [
        {
          "internalType": "address",
          "name": "from",
          "type": "address"
        },
        {
          "internalType": "address",
          "name": "to",
          "type": "address"
        },
        {
          "internalType": "uint256",
          "name": "tokenId",
          "type": "uint256"
        }
      ],
      "name": "safeTransferFrom",
      "outputs": [],
      "stateMutability": "nonpayable",
      "type": "function"
    },
    {
      "inputs": [
        {
          "internalType": "address",
          "name": "from",
          "type": "address"
        },
        {
          "internalType": "address",
          "name": "to",
          "type": "address"
        },
        {
          "internalType": "uint256",
          "name": "tokenId",
          "type": "uint256"
        },
        {
          "internalType": "bytes",
          "name": "data",
          "type": "bytes"
        }
      ],
      "name": "safeTransferFrom",
      "outputs": [],
      "stateMutability": "nonpayable",
      "type": "function"
    },
    {
      "inputs": [
        {
          "internalType": "address",
          "name": "operator",
          "type": "address"
        },
        {
          "internalType": "bool",
          "name": "approved",
          "type": "bool"
        }
      ],
      "name": "setApprovalForAll",
      "outputs": [],
      "stateMutability": "nonpayable",
      "type": "function"
    },
    {
      "inputs": [
        {
          "internalType": "string",
          "name": "baseURI",
          "type": "string"
        }
      ],
      "name": "setBaseURI",
      "outputs": [],
      "stateMutability": "nonpayable",
      "type": "function"
    },
    {
      "inputs": [
        {
          "internalType": "uint256",
          "name": "tokenId",
          "type": "uint256"
        },
        {
          "internalType": "string",
          "name": "uri",
          "type": "string"
        }
      ],
      "name": "setTokenURI",
      "outputs": [],
      "stateMutability": "nonpayable",
      "type": "function"
    },
    {
      "inputs": [
        {
          "internalType": "bool",
          "name": "_transferable",
          "type": "bool"
        }
      ],
      "name": "setTransferable",
      "outputs": [],
      "stateMutability": "nonpayable",
      "type": "function"
    },
    {
      "inputs": [
        {
          "internalType": "bytes4",
          "name": "interfaceId",
          "type": "bytes4"
        }
      ],
      "name": "supportsInterface",
      "outputs": [
        {
          "internalType": "bool",
          "name": "",
          "type": "bool"
        }
      ],
      "stateMutability": "pure",
      "type": "function"
    },
    {
      "inputs": [],
      "name": "symbol",
      "outputs": [
        {
          "internalType": "string",
          "name": "",
          "type": "string"
        }
      ],
      "stateMutability": "view",
      "type": "function"
    },
    {
      "inputs": [
        {
          "internalType": "uint256",
          "name": "tokenId",
          "type": "uint256"
        }
      ],
      "name": "tokenURI",
      "outputs": [
        {
          "internalType": "string",
          "name": "",
          "type": "string"
        }
      ],
      "stateMutability": "view",
      "type": "function"
    },
    {
      "inputs": [],
      "name": "totalSupply",
      "outputs": [
        {
          "internalType": "uint256",
          "name": "",
          "type": "uint256"
        }
      ],
      "stateMutability": "view",
      "type": "function"
    },
    {
      "inputs": [
        {
          "internalType": "address",
          "name": "from",
          "type": "address"
        },
        {
          "internalType": "address",
          "name": "to",
          "type": "address"
        },
        {
          "internalType": "uint256",
          "name": "tokenId",
          "type": "uint256"
        }
      ],
      "name": "transferFrom",
      "outputs": [],
      "stateMutability": "nonpayable",
      "type": "function"
    },
    {
      "inputs": [
        {
          "internalType": "address",
          "name": "newOwner",
          "type": "address"
        }
      ],
      "name": "transferOwnership",
      "outputs": [],
      "stateMutability": "nonpayable",
      "type": "function"
    },
    {
      "inputs": [],
      "name": "transferable",
      "outputs": [
        {
          "internalType": "bool",
          "name": "",
          "type": "bool"
        }
      ],
      "stateMutability": "view",
      "type": "function"
    }
  ],
  "bytecode": "0x60c0604052601860808190527f474f4f474c4520414453204143434f554e542053544f5245000000000000000060a0908152620000409160009190620000ee565b50604080518082019091526004808252634741445360e01b60209092019182526200006e91600191620000ee565b506004805460ff191690553480156200008657600080fd5b50d380156200009457600080fd5b50d28015620000a257600080fd5b50600280546001600160a01b0319163390811790915560016003556040516000907f8be0079c531659141344cd1fd0a4f28419497f9722a3daafe3b4186f6b6457e0908290a3620001d1565b828054620000fc9062000194565b90600052602060002090601f0160209004810192826200012057600085556200016b565b82601f106200013b57805160ff19168380011785556200016b565b828001600101855582156200016b579182015b828111156200016b5782518255916020019190600101906200014e565b50620001799291506200017d565b5090565b5b808211156200017957600081556001016200017e565b600181811c90821680620001a957607f821691505b60208210811415620001cb57634e487b7160e01b600052602260045260246000fd5b50919050565b61218280620001e16000396000f3fe608060405234801561001057600080fd5b50d3801561001d57600080fd5b50d2801561002a57600080fd5b50600436106101725760003560e01c806370a08231116100dd578063a22cb46511610096578063a22cb465146102fd578063b88d4fde14610310578063c87b56dd14610323578063e4623c1b14610336578063e985e9c514610349578063f2fde38b1461038557600080fd5b806370a082311461028f5780638da5cb5b146102a2578063927f59ba146102b557806392ff0d31146102d557806395d89b41146102e25780639cd23707146102ea57600080fd5b806323b872dd1161012f57806323b872dd1461021d57806342842e0e1461023057806342966c681461024357806355f804b3146102565780636352211e146102695780636a6278421461027c57600080fd5b806301ffc9a71461017757806306fdde031461019f578063081812fc146101b4578063095ea7b3146101df578063162094c4146101f457806318160ddd14610207575b600080fd5b61018a610185366004611c84565b610398565b60405190151581526020015b60405180910390f35b6101a76103ea565b6040516101969190611f03565b6101c76101c2366004611cf3565b61047c565b6040516001600160a01b039091168152602001610196565b6101f26101ed366004611bfd565b6104dc565b005b6101f2610202366004611d0c565b610636565b61020f6106b5565b604051908152602001610196565b6101f261022b366004611b1b565b6106cb565b6101f261023e366004611b1b565b6108b7565b6101f2610251366004611cf3565b6108d7565b6101f2610264366004611cbe565b610a13565b6101c7610277366004611cf3565b610a8b565b61020f61028a366004611acd565b610ade565b61020f61029d366004611acd565b610bec565b6002546101c7906001600160a01b031681565b6102c86102c3366004611c27565b610c6c565b6040516101969190611ebf565b60045461018a9060ff1681565b6101a7610fa1565b6101f26102f8366004611c69565b610fb0565b6101f261030b366004611bd3565b61101b565b6101f261031e366004611b57565b6110e0565b6101a7610331366004611cf3565b611113565b6101f2610344366004611c27565b611257565b61018a610357366004611ae8565b6001600160a01b03918216600090815260096020908152604080832093909416825291909152205460ff1690565b6101f2610393366004611acd565b611465565b60006001600160e01b031982166380ac58cd60e01b14806103c957506001600160e01b03198216635b5e139f60e01b145b806103e457506001600160e01b031982166301ffc9a760e01b145b92915050565b6060600080546103f99061205a565b80601f01602080910402602001604051908101604052809291908181526020018280546104259061205a565b80156104725780601f1061044757610100808354040283529160200191610472565b820191906000526020600020905b81548152906001019060200180831161045557829003601f168201915b5050505050905090565b60008181526006602052604081205482906001600160a01b03166104bb5760405162461bcd60e51b81526004016104b290611f9d565b60405180910390fd5b6000838152600860205260409020546001600160a01b031691505b50919050565b60008181526006602052604090205481906001600160a01b03166105125760405162461bcd60e51b81526004016104b290611f9d565b600061051d83610a8b565b9050806001600160a01b0316846001600160a01b031614156105815760405162461bcd60e51b815260206004820152601f60248201527f474144533a20617070726f76616c20746f2063757272656e74206f776e65720060448201526064016104b2565b336001600160a01b03821614806105bb57506001600160a01b038116600090815260096020908152604080832033845290915290205460ff165b6106265760405162461bcd60e51b815260206004820152603660248201527f474144533a20617070726f76652063616c6c6572206973206e6f74206f776e656044820152751c881b9bdc88185c1c1c9bdd995908199bdc88185b1b60521b60648201526084016104b2565b6106308484611537565b50505050565b6002546001600160a01b031633146106605760405162461bcd60e51b81526004016104b290611f66565b60008281526006602052604090205482906001600160a01b03166106965760405162461bcd60e51b81526004016104b290611f9d565b6000838152600a602090815260409091208351610630928501906118d6565b600060016003546106c69190612000565b905090565b60008181526006602052604090205481906001600160a01b03166107015760405162461bcd60e51b81526004016104b290611f9d565b60045460ff168061071c57506002546001600160a01b031633145b6107735760405162461bcd60e51b815260206004820152602260248201527f474144533a20746f6b656e207472616e7366657273206172652064697361626c604482015261195960f21b60648201526084016104b2565b61077d33836115a5565b6107e15760405162461bcd60e51b815260206004820152602f60248201527f474144533a207472616e736665722063616c6c6572206973206e6f74206f776e60448201526e195c881b9bdc88185c1c1c9bdd9959608a1b60648201526084016104b2565b836001600160a01b03166107f483610a8b565b6001600160a01b0316146108565760405162461bcd60e51b815260206004820152602360248201527f474144533a207472616e736665722066726f6d20696e636f7272656374206f776044820152623732b960e91b60648201526084016104b2565b6001600160a01b0383166108ac5760405162461bcd60e51b815260206004820152601e60248201527f474144533a207472616e7366657220746f207a65726f2061646472657373000060448201526064016104b2565b610630848484611624565b6108d2838383604051806020016040528060008152506110e0565b505050565b6002546001600160a01b031633146109015760405162461bcd60e51b81526004016104b290611f66565b60008181526006602052604090205481906001600160a01b03166109375760405162461bcd60e51b81526004016104b290611f9d565b6000828152600660205260408120546001600160a01b03169061095a9084611537565b6001600160a01b038116600090815260076020526040812080549161097e83612043565b9091555050600083815260066020908152604080832080546001600160a01b0319169055600a90915281206109b29161195a565b6040516001600160a01b0382169084907f33631bcd0a4d34a7e2c240ab0753d5adfb7284d8ac89dab6876ec785c0cfa0e690600090a360405183906000906001600160a01b0384169060008051602061212d833981519152908390a4505050565b6002546001600160a01b03163314610a3d5760405162461bcd60e51b81526004016104b290611f66565b8051610a509060059060208401906118d6565b507f5411e8ebf1636d9e83d5fc4900bf80cbac82e8790da2a4c94db4895e889eedf681604051610a809190611f03565b60405180910390a150565b60008181526006602052604081205482906001600160a01b0316610ac15760405162461bcd60e51b81526004016104b290611f9d565b50506000908152600660205260409020546001600160a01b031690565b6002546000906001600160a01b03163314610b0b5760405162461bcd60e51b81526004016104b290611f66565b6001600160a01b038216610b615760405162461bcd60e51b815260206004820152601a60248201527f474144533a206d696e7420746f207a65726f206164647265737300000000000060448201526064016104b2565b600380549081906000610b738361208f565b90915550506001600160a01b0383166000908152600760205260408120805491610b9c8361208f565b909155505060008181526006602052604080822080546001600160a01b0319166001600160a01b038716908117909155905183929060008051602061212d833981519152908290a490505b919050565b60006001600160a01b038216610c505760405162461bcd60e51b8152602060048201526024808201527f474144533a2062616c616e636520717565727920666f72207a65726f206164646044820152637265737360e01b60648201526084016104b2565b506001600160a01b031660009081526007602052604090205490565b6002546060906001600160a01b03163314610c995760405162461bcd60e51b81526004016104b290611f66565b81610ce65760405162461bcd60e51b815260206004820152601c60248201527f474144533a20656d70747920726563697069656e74732061727261790000000060448201526064016104b2565b6064821115610d2f5760405162461bcd60e51b8152602060048201526015602482015274474144533a20626174636820746f6f206c6172676560581b60448201526064016104b2565b8167ffffffffffffffff811115610d4857610d48612100565b604051908082528060200260200182016040528015610d71578160200160208202803683370190505b50905060005b82811015610f4b576000848483818110610d9357610d936120ea565b9050602002016020810190610da89190611acd565b6001600160a01b03161415610dff5760405162461bcd60e51b815260206004820152601a60248201527f474144533a206d696e7420746f207a65726f206164647265737300000000000060448201526064016104b2565b600380549081906000610e118361208f565b919050555060076000868685818110610e2c57610e2c6120ea565b9050602002016020810190610e419190611acd565b6001600160a01b0316815260208101919091526040016000908120805491610e688361208f565b9190505550848483818110610e7f57610e7f6120ea565b9050602002016020810190610e949190611acd565b600082815260066020526040902080546001600160a01b0319166001600160a01b039290921691909117905582518190849084908110610ed657610ed66120ea565b60200260200101818152505080858584818110610ef557610ef56120ea565b9050602002016020810190610f0a9190611acd565b6001600160a01b031660006001600160a01b031660008051602061212d83398151915260405160405180910390a45080610f438161208f565b915050610d77565b508282604051610f5c929190611d9b565b60405180910390207f46c094f2f2404297a48a7c4d47697ed07cd7dcb542f35259c65ace5c1f68e1db82604051610f939190611ebf565b60405180910390a292915050565b6060600180546103f99061205a565b6002546001600160a01b03163314610fda5760405162461bcd60e51b81526004016104b290611f66565b6004805460ff19168215159081179091556040519081527f6488c20eb299903c41aa1b53c3ad5a3140aca395935e57cc52c1cc8dae8d9e1790602001610a80565b6001600160a01b0382163314156110745760405162461bcd60e51b815260206004820152601760248201527f474144533a20617070726f766520746f2063616c6c657200000000000000000060448201526064016104b2565b3360008181526009602090815260408083206001600160a01b03871680855290835292819020805460ff191686151590811790915590519081529192917f17307eab39ab6107e8899845ad3d59bd9653f200f220920489ca2b5937696c31910160405180910390a35050565b6110eb8484846106cb565b6110f7848484846116cb565b6106305760405162461bcd60e51b81526004016104b290611f16565b60008181526006602052604090205460609082906001600160a01b031661114c5760405162461bcd60e51b81526004016104b290611f9d565b6000838152600a6020526040812080546111659061205a565b80601f01602080910402602001604051908101604052809291908181526020018280546111919061205a565b80156111de5780601f106111b3576101008083540402835291602001916111de565b820191906000526020600020905b8154815290600101906020018083116111c157829003601f168201915b505050505090506000815111156111f65791506104d6565b6000600580546112059061205a565b90501115611240576005611218856117d8565b604051602001611229929190611ddb565b6040516020818303038152906040529250506104d6565b505060408051602081019091526000815292915050565b6002546001600160a01b031633146112815760405162461bcd60e51b81526004016104b290611f66565b806112ce5760405162461bcd60e51b815260206004820152601a60248201527f474144533a20656d70747920746f6b656e49647320617272617900000000000060448201526064016104b2565b60648111156113175760405162461bcd60e51b8152602060048201526015602482015274474144533a20626174636820746f6f206c6172676560581b60448201526064016104b2565b60005b818110156108d2576000838383818110611336576113366120ea565b6020908102929092013560008181526006909352604090922054919250506001600160a01b03166113795760405162461bcd60e51b81526004016104b290611f9d565b6000818152600660205260408120546001600160a01b03169061139c9083611537565b6001600160a01b03811660009081526007602052604081208054916113c083612043565b9091555050600082815260066020908152604080832080546001600160a01b0319169055600a90915281206113f49161195a565b6040516001600160a01b0382169083907f33631bcd0a4d34a7e2c240ab0753d5adfb7284d8ac89dab6876ec785c0cfa0e690600090a360405182906000906001600160a01b0384169060008051602061212d833981519152908390a45050808061145d9061208f565b91505061131a565b6002546001600160a01b0316331461148f5760405162461bcd60e51b81526004016104b290611f66565b6001600160a01b0381166114e55760405162461bcd60e51b815260206004820152601f60248201527f474144533a206e6577206f776e6572206973207a65726f20616464726573730060448201526064016104b2565b600280546001600160a01b038381166001600160a01b0319831681179093556040519116919082907f8be0079c531659141344cd1fd0a4f28419497f9722a3daafe3b4186f6b6457e090600090a35050565b600081815260086020526040902080546001600160a01b0319166001600160a01b038416908117909155819061156c82610a8b565b6001600160a01b03167f8c5be1e5ebec7d5bd14f71427d1e84f3dd0314c0f7b2291e5b200ac8c7c3b92560405160405180910390a45050565b6000806115b183610a8b565b9050806001600160a01b0316846001600160a01b031614806115ec57506000838152600860205260409020546001600160a01b038581169116145b8061161c57506001600160a01b0380821660009081526009602090815260408083209388168352929052205460ff165b949350505050565b61162f600082611537565b6001600160a01b038316600090815260076020526040812080549161165383612043565b90915550506001600160a01b038216600090815260076020526040812080549161167c8361208f565b909155505060008181526006602052604080822080546001600160a01b0319166001600160a01b03868116918217909255915184939187169160008051602061212d83398151915291a4505050565b60006001600160a01b0384163b156117cd57604051630a85bd0160e11b81526001600160a01b0385169063150b7a029061170f903390899088908890600401611e82565b602060405180830381600087803b15801561172957600080fd5b505af1925050508015611759575060408051601f3d908101601f1916820190925261175691810190611ca1565b60015b6117b3573d808015611787576040519150601f19603f3d011682016040523d82523d6000602084013e61178c565b606091505b5080516117ab5760405162461bcd60e51b81526004016104b290611f16565b805181602001fd5b6001600160e01b031916630a85bd0160e11b14905061161c565b506001949350505050565b6060816117fc5750506040805180820190915260018152600360fc1b602082015290565b8160005b811561182657806118108161208f565b915061181f9050600a83611fec565b9150611800565b60008167ffffffffffffffff81111561184157611841612100565b6040519080825280601f01601f19166020018201604052801561186b576020820181803683370190505b5090505b841561161c57611880600183612000565b915061188d600a866120aa565b611898906030611fd4565b60f81b8183815181106118ad576118ad6120ea565b60200101906001600160f81b031916908160001a9053506118cf600a86611fec565b945061186f565b8280546118e29061205a565b90600052602060002090601f016020900481019282611904576000855561194a565b82601f1061191d57805160ff191683800117855561194a565b8280016001018555821561194a579182015b8281111561194a57825182559160200191906001019061192f565b50611956929150611997565b5090565b5080546119669061205a565b6000825580601f10611976575050565b601f0160209004906000526020600020908101906119949190611997565b50565b5b808211156119565760008155600101611998565b600067ffffffffffffffff808411156119c7576119c7612100565b604051601f8501601f19908116603f011681019082821181831017156119ef576119ef612100565b81604052809350858152868686011115611a0857600080fd5b858560208301376000602087830101525050509392505050565b600081356001600160a81b0381168114611a3b57600080fd5b6001600160a01b031692915050565b60008083601f840112611a5c57600080fd5b50813567ffffffffffffffff811115611a7457600080fd5b6020830191508360208260051b8501011115611a8f57600080fd5b9250929050565b80358015158114610be757600080fd5b600082601f830112611ab757600080fd5b611ac6838335602085016119ac565b9392505050565b600060208284031215611adf57600080fd5b611ac682611a22565b60008060408385031215611afb57600080fd5b611b0483611a22565b9150611b1260208401611a22565b90509250929050565b600080600060608486031215611b3057600080fd5b611b3984611a22565b9250611b4760208501611a22565b9150604084013590509250925092565b60008060008060808587031215611b6d57600080fd5b611b7685611a22565b9350611b8460208601611a22565b925060408501359150606085013567ffffffffffffffff811115611ba757600080fd5b8501601f81018713611bb857600080fd5b611bc7878235602084016119ac565b91505092959194509250565b60008060408385031215611be657600080fd5b611bef83611a22565b9150611b1260208401611a96565b60008060408385031215611c1057600080fd5b611c1983611a22565b946020939093013593505050565b60008060208385031215611c3a57600080fd5b823567ffffffffffffffff811115611c5157600080fd5b611c5d85828601611a4a565b90969095509350505050565b600060208284031215611c7b57600080fd5b611ac682611a96565b600060208284031215611c9657600080fd5b8135611ac681612116565b600060208284031215611cb357600080fd5b8151611ac681612116565b600060208284031215611cd057600080fd5b813567ffffffffffffffff811115611ce757600080fd5b61161c84828501611aa6565b600060208284031215611d0557600080fd5b5035919050565b60008060408385031215611d1f57600080fd5b82359150602083013567ffffffffffffffff811115611d3d57600080fd5b611d4985828601611aa6565b9150509250929050565b60008151808452611d6b816020860160208601612017565b601f01601f19169290920160200192915050565b60008151611d91818560208601612017565b9290920192915050565b60008184825b85811015611dd0576001600160a01b03611dba83611a22565b1683526020928301929190910190600101611da1565b509095945050505050565b600080845481600182811c915080831680611df757607f831692505b6020808410821415611e1757634e487b7160e01b86526022600452602486fd5b818015611e2b5760018114611e3c57611e69565b60ff19861689528489019650611e69565b60008b81526020902060005b86811015611e615781548b820152908501908301611e48565b505084890196505b505050505050611e798185611d7f565b95945050505050565b6001600160a01b0385811682528416602082015260408101839052608060608201819052600090611eb590830184611d53565b9695505050505050565b6020808252825182820181905260009190848201906040850190845b81811015611ef757835183529284019291840191600101611edb565b50909695505050505050565b602081526000611ac66020830184611d53565b60208082526030908201527f474144533a207472616e7366657220746f206e6f6e204552433732315265636560408201526f34bb32b91034b6b83632b6b2b73a32b960811b606082015260800190565b6020808252601d908201527f474144533a2063616c6c6572206973206e6f7420746865206f776e6572000000604082015260600190565b6020808252601a908201527f474144533a20746f6b656e20646f6573206e6f74206578697374000000000000604082015260600190565b60008219821115611fe757611fe76120be565b500190565b600082611ffb57611ffb6120d4565b500490565b600082821015612012576120126120be565b500390565b60005b8381101561203257818101518382015260200161201a565b838111156106305750506000910152565b600081612052576120526120be565b506000190190565b600181811c9082168061206e57607f821691505b602082108114156104d657634e487b7160e01b600052602260045260246000fd5b60006000198214156120a3576120a36120be565b5060010190565b6000826120b9576120b96120d4565b500690565b634e487b7160e01b600052601160045260246000fd5b634e487b7160e01b600052601260045260246000fd5b634e487b7160e01b600052603260045260246000fd5b634e487b7160e01b600052604160045260246000fd5b6001600160e01b03198116811461199457600080fdfeddf252ad1be2c89b69c2b068fc378daa952ba7f163c4a11628f55a4df523b3efa26474726f6e58221220b4ca70563b9685cb4f379bdb826f9f83c5568b21fb8353f3d54fc4449e6a5cf364736f6c63430008060033",
  "source": "// SPDX-License-Identifier: MIT\npragma solidity ^0.8.6;\n\n/**\n * @title GADS NFT - GOOGLE ADS ACCOUNT STORE\n * @dev ERC-721 contract with token transfer restriction\n * @author Senior Solidity Developer\n */\n\n// ERC-721 Interfaces\ninterface IERC165 {\n    function supportsInterface(bytes4 interfaceId) external view returns (bool);\n}\n\ninterface IERC721 is IERC165 {\n    event Transfer(address indexed from, address indexed to, uint256 indexed tokenId);\n    event Approval(address indexed owner, address indexed approved, uint256 indexed tokenId);\n    event ApprovalForAll(address indexed owner, address indexed operator, bool approved);\n\n    function balanceOf(address owner) external view returns (uint256 balance);\n    function ownerOf(uint256 tokenId) external view returns (address owner);\n    function safeTransferFrom(address from, address to, uint256 tokenId) external;\n    function transferFrom(address from, address to, uint256 tokenId) external;\n    function approve(address to, uint256 tokenId) external;\n    function getApproved(uint256 tokenId) external view returns (address operator);\n    function setApprovalForAll(address operator, bool _approved) external;\n    function isApprovedForAll(address owner, address operator) external view returns (bool);\n    function safeTransferFrom(address from, address to, uint256 tokenId, bytes calldata data) external;\n}\n\ninterface IERC721Metadata is IERC721 {\n    function name() external view returns (string memory);\n    function symbol() external view returns (string memory);\n    function tokenURI(uint256 tokenId) external view returns (string memory);\n}\n\ninterface IERC721Receiver {\n    function onERC721Received(address operator, address from, uint256 tokenId, bytes calldata data) external returns (bytes4);\n}\n\n/**\n * @title GADS NFT Contract\n * @notice NFT contract with the ability to lock token transfers\n */\ncontract GADS is IERC721Metadata {\n\n    // ========== STATE VARIABLES ========== //\n\n    string private _name = \"GOOGLE ADS ACCOUNT STORE\";\n    string private _symbol = \"GADS\";\n\n    address public owner;\n    uint256 private _tokenIdCounter;\n\n    // Flag to allow/disallow NFT transfers between users\n    bool public transferable = false;\n\n    // Base URI for metadata\n    string private _baseTokenURI;\n\n    // Mappings for ERC-721\n    mapping(uint256 => address) private _owners;\n    mapping(address => uint256) private _balances;\n    mapping(uint256 => address) private _tokenApprovals;\n    mapping(address => mapping(address => bool)) private _operatorApprovals;\n\n    // Mapping to store the URI of each token\n    mapping(uint256 => string) private _tokenURIs;\n\n    // ========== EVENTS ========== //\n\n    event TransferableChanged(bool newStatus);\n    event TokenBurned(uint256 indexed tokenId, address indexed owner);\n    event BatchMinted(address[] indexed recipients, uint256[] tokenIds);\n    event OwnershipTransferred(address indexed previousOwner, address indexed newOwner);\n    event BaseURIChanged(string newBaseURI);\n\n    // ========== MODIFIERS ========== //\n\n    modifier onlyOwner() {\n        require(msg.sender == owner, \"GADS: caller is not the owner\");\n        _;\n    }\n\n    modifier tokenExists(uint256 tokenId) {\n        require(_owners[tokenId] != address(0), \"GADS: token does not exist\");\n        _;\n    }\n\n    // ========== CONSTRUCTOR ========== //\n\n    constructor() {\n        owner = msg.sender;\n        _tokenIdCounter = 1; // Start with 1\n        emit OwnershipTransferred(address(0), msg.sender);\n    }\n\n    // ========== OWNER FUNCTIONS ========== //\n\n    /**\n     * @notice Mint a single NFT token\n     * @param to Recipient's address\n     * @return tokenId ID of the created token\n     */\n    function mint(address to) public onlyOwner returns (uint256) {\n        require(to != address(0), \"GADS: mint to zero address\");\n\n        uint256 tokenId = _tokenIdCounter;\n        _tokenIdCounter++;\n\n        _balances[to]++;\n        _owners[tokenId] = to;\n\n        emit Transfer(address(0), to, tokenId);\n\n        return tokenId;\n    }\n\n    /**\n     * @notice Batch mint NFT tokens\n     * @param recipients Array of recipient addresses\n     * @return tokenIds Array of created token IDs\n     */\n    function mintBatch(address[] calldata recipients)\n    external\n    onlyOwner\n    returns (uint256[] memory tokenIds)\n    {\n        require(recipients.length > 0, \"GADS: empty recipients array\");\n        require(recipients.length <= 100, \"GADS: batch too large\"); // Limit for security\n\n        tokenIds = new uint256[](recipients.length);\n\n        for (uint256 i = 0; i < recipients.length; i++) {\n            require(recipients[i] != address(0), \"GADS: mint to zero address\");\n\n            uint256 tokenId = _tokenIdCounter;\n            _tokenIdCounter++;\n\n            _balances[recipients[i]]++;\n            _owners[tokenId] = recipients[i];\n\n            tokenIds[i] = tokenId;\n\n            emit Transfer(address(0), recipients[i], tokenId);\n        }\n\n        emit BatchMinted(recipients, tokenIds);\n\n        return tokenIds;\n    }\n\n    /**\n     * @notice Burn a token by the contract owner\n     * @param tokenId ID of the token to be burned\n     */\n    function burn(uint256 tokenId) external onlyOwner tokenExists(tokenId) {\n        address tokenOwner = _owners[tokenId];\n\n        // Clear approvals\n        _approve(address(0), tokenId);\n\n        _balances[tokenOwner]--;\n        delete _owners[tokenId];\n        delete _tokenURIs[tokenId];\n\n        emit TokenBurned(tokenId, tokenOwner);\n        emit Transfer(tokenOwner, address(0), tokenId);\n    }\n\n    /**\n     * @notice Batch burn tokens\n     * @param tokenIds Array of token IDs to be burned\n     */\n    function burnBatch(uint256[] calldata tokenIds) external onlyOwner {\n        require(tokenIds.length > 0, \"GADS: empty tokenIds array\");\n        require(tokenIds.length <= 100, \"GADS: batch too large\");\n\n        for (uint256 i = 0; i < tokenIds.length; i++) {\n            uint256 tokenId = tokenIds[i];\n            require(_owners[tokenId] != address(0), \"GADS: token does not exist\");\n\n            address tokenOwner = _owners[tokenId];\n\n            _approve(address(0), tokenId);\n\n            _balances[tokenOwner]--;\n            delete _owners[tokenId];\n            delete _tokenURIs[tokenId];\n\n            emit TokenBurned(tokenId, tokenOwner);\n            emit Transfer(tokenOwner, address(0), tokenId);\n        }\n    }\n\n    /**\n     * @notice Enable/disable the ability to transfer tokens\n     * @param _transferable true - allow transfer, false - disallow\n     */\n    function setTransferable(bool _transferable) external onlyOwner {\n        transferable = _transferable;\n        emit TransferableChanged(_transferable);\n    }\n\n    /**\n     * @notice Set the base URI for metadata\n     * @param baseURI New base URI\n     */\n    function setBaseURI(string memory baseURI) external onlyOwner {\n        _baseTokenURI = baseURI;\n        emit BaseURIChanged(baseURI);\n    }\n\n    /**\n     * @notice Set the URI for a specific token\n     * @param tokenId Token ID\n     * @param uri Metadata URI\n     */\n    function setTokenURI(uint256 tokenId, string memory uri)\n    external\n    onlyOwner\n    tokenExists(tokenId)\n    {\n        _tokenURIs[tokenId] = uri;\n    }\n\n    /**\n     * @notice Transfer contract ownership\n     * @param newOwner Address of the new owner\n     */\n    function transferOwnership(address newOwner) external onlyOwner {\n        require(newOwner != address(0), \"GADS: new owner is zero address\");\n        address oldOwner = owner;\n        owner = newOwner;\n        emit OwnershipTransferred(oldOwner, newOwner);\n    }\n\n    // ========== VIEW FUNCTIONS ========== //\n\n    function name() external view override returns (string memory) {\n        return _name;\n    }\n\n    function symbol() external view override returns (string memory) {\n        return _symbol;\n    }\n\n    function balanceOf(address ownerAddress) external view override returns (uint256) {\n        require(ownerAddress != address(0), \"GADS: balance query for zero address\");\n        return _balances[ownerAddress];\n    }\n\n    function ownerOf(uint256 tokenId) public view override tokenExists(tokenId) returns (address) {\n        return _owners[tokenId];\n    }\n\n    function tokenURI(uint256 tokenId)\n    external\n    view\n    override\n    tokenExists(tokenId)\n    returns (string memory)\n    {\n        string memory _tokenURI = _tokenURIs[tokenId];\n\n        // If an individual URI is set\n        if (bytes(_tokenURI).length > 0) {\n            return _tokenURI;\n        }\n\n        // If a base URI is set\n        if (bytes(_baseTokenURI).length > 0) {\n            return string(abi.encodePacked(_baseTokenURI, _toString(tokenId)));\n        }\n\n        return \"\";\n    }\n\n    function totalSupply() external view returns (uint256) {\n        return _tokenIdCounter - 1;\n    }\n\n    function getApproved(uint256 tokenId)\n    external\n    view\n    override\n    tokenExists(tokenId)\n    returns (address)\n    {\n        return _tokenApprovals[tokenId];\n    }\n\n    function isApprovedForAll(address ownerAddress, address operator)\n    external\n    view\n    override\n    returns (bool)\n    {\n        return _operatorApprovals[ownerAddress][operator];\n    }\n\n    function supportsInterface(bytes4 interfaceId)\n    external\n    pure\n    override\n    returns (bool)\n    {\n        return\n            interfaceId == type(IERC721).interfaceId ||\n            interfaceId == type(IERC721Metadata).interfaceId ||\n            interfaceId == type(IERC165).interfaceId;\n    }\n\n    // ========== TRANSFER FUNCTIONS ========== //\n\n    /**\n     * @notice Token transfer (only available if transferable = true or called by the owner)\n     */\n    function transferFrom(address from, address to, uint256 tokenId)\n    public\n    override\n    tokenExists(tokenId)\n    {\n        require(\n            transferable || msg.sender == owner,\n            \"GADS: token transfers are disabled\"\n        );\n        require(\n            _isApprovedOrOwner(msg.sender, tokenId),\n            \"GADS: transfer caller is not owner nor approved\"\n        );\n        require(ownerOf(tokenId) == from, \"GADS: transfer from incorrect owner\");\n        require(to != address(0), \"GADS: transfer to zero address\");\n\n        _transfer(from, to, tokenId);\n    }\n\n    function safeTransferFrom(address from, address to, uint256 tokenId)\n    external\n    override\n    {\n        safeTransferFrom(from, to, tokenId, \"\");\n    }\n\n    function safeTransferFrom(\n        address from,\n        address to,\n        uint256 tokenId,\n        bytes memory data\n    )\n    public\n    override\n    {\n        transferFrom(from, to, tokenId);\n        require(\n            _checkOnERC721Received(from, to, tokenId, data),\n            \"GADS: transfer to non ERC721Receiver implementer\"\n        );\n    }\n\n    function approve(address to, uint256 tokenId) external override tokenExists(tokenId) {\n        address tokenOwner = ownerOf(tokenId);\n        require(to != tokenOwner, \"GADS: approval to current owner\");\n        require(\n            msg.sender == tokenOwner || _operatorApprovals[tokenOwner][msg.sender],\n            \"GADS: approve caller is not owner nor approved for all\"\n        );\n\n        _approve(to, tokenId);\n    }\n\n    function setApprovalForAll(address operator, bool approved) external override {\n        require(operator != msg.sender, \"GADS: approve to caller\");\n        _operatorApprovals[msg.sender][operator] = approved;\n        emit ApprovalForAll(msg.sender, operator, approved);\n    }\n\n    // ========== INTERNAL FUNCTIONS ========== //\n\n    function _transfer(address from, address to, uint256 tokenId) internal {\n        _approve(address(0), tokenId);\n\n        _balances[from]--;\n        _balances[to]++;\n        _owners[tokenId] = to;\n\n        emit Transfer(from, to, tokenId);\n    }\n\n    function _approve(address to, uint256 tokenId) internal {\n        _tokenApprovals[tokenId] = to;\n        emit Approval(ownerOf(tokenId), to, tokenId);\n    }\n\n    function _isApprovedOrOwner(address spender, uint256 tokenId)\n    internal\n    view\n    returns (bool)\n    {\n        address tokenOwner = ownerOf(tokenId);\n        return (\n            spender == tokenOwner ||\n            _tokenApprovals[tokenId] == spender ||\n            _operatorApprovals[tokenOwner][spender]\n        );\n    }\n\n    function _checkOnERC721Received(\n        address from,\n        address to,\n        uint256 tokenId,\n        bytes memory data\n    ) private returns (bool) {\n        if (to.code.length > 0) {\n            try IERC721Receiver(to).onERC721Received(msg.sender, from, tokenId, data) returns (bytes4 retval) {\n                return retval == IERC721Receiver.onERC721Received.selector;\n            } catch (bytes memory reason) {\n                if (reason.length == 0) {\n                    revert(\"GADS: transfer to non ERC721Receiver implementer\");\n                } else {\n                    assembly {\n                        revert(add(32, reason), mload(reason))\n                    }\n                }\n            }\n        }\n        return true;\n    }\n\n    function _toString(uint256 value) internal pure returns (string memory) {\n        if (value == 0) {\n            return \"0\";\n        }\n        uint256 temp = value;\n        uint256 digits;\n        while (temp != 0) {\n            digits++;\n            temp /= 10;\n        }\n        bytes memory buffer = new bytes(digits);\n        while (value != 0) {\n            digits -= 1;\n            buffer[digits] = bytes1(uint8(48 + uint256(value % 10)));\n            value /= 10;\n        }\n        return string(buffer);\n    }\n}\n",
  "sourcePath": "/home/user/vpomo/nft-project/blockchain/contracts/GADS.sol",
  "compiler": {
    "name": "solc",
    "version": "0.8.6+commit.0e36fba0.mod.Emscripten.clang"
  },
  "schemaVersion": "2.0.1",
  "updatedAt": "2025-11-24T07:31:56.678Z"
}